{
    "contractName": "HelloWorld",
    "abi": [
        {
            "inputs": [],
            "name": "getMessage",
            "outputs": [
                {
                    "internalType": "string",
                    "name": "",
                    "type": "string"
                }
            ],
            "stateMutability": "view",
            "type": "function"
        }
    ],
    "bytecode": "60c0604052600d60809081526c48656c6c6f2c20576f726c642160981b60a0525f9061002b90826100d7565b50348015610037575f80fd5b50610192565b634e487b7160e01b5f52604160045260245ffd5b600181811c9082168061006557607f821691505b60208210810361008357634e487b7160e01b5f52602260045260245ffd5b50919050565b601f8211156100d2575f81815260208120601f850160051c810160208610156100af5750805b601f850160051c820191505b818110156100ce578281556001016100bb565b5050505b505050565b81516001600160401b038111156100f0576100f061003d565b610104816100fe8454610051565b84610089565b602080601f831160018114610137575f84156101205750858301515b5f19600386901b1c1916600185901b1785556100ce565b5f85815260208120601f198616915b8281101561016557888601518255948401946001909101908401610146565b508582101561018257878501515f19600388901b60f8161c191681555b5050505050600190811b01905550565b6101938061019f5f395ff3fe608060405234801561000f575f80fd5b5060043610610029575f3560e01c8063ce6d41de1461002d575b5f80fd5b61003561004b565b60405161004291906100da565b60405180910390f35b60605f805461005990610125565b80601f016020809104026020016040519081016040528092919081815260200182805461008590610125565b80156100d05780601f106100a7576101008083540402835291602001916100d0565b820191905f5260205f20905b8154815290600101906020018083116100b357829003601f168201915b5050505050905090565b5f6020808352835180828501525f5b81811015610105578581018301518582016040015282016100e9565b505f604082860101526040601f19601f8301168501019250505092915050565b600181811c9082168061013957607f821691505b60208210810361015757634e487b7160e01b5f52602260045260245ffd5b5091905056fea26469706673582212201ac3375041c99c7a930a10c40f076c2fe528bd1d75823a41a00179d86e36280464736f6c63430008150033",
    "sourcePath": "d:/learn_project/web3/first_day/contracts/HelloWorld.sol",
    "compiler": {
        "name": "solc",
        "version": "0.8.21+commit.d9974bed"
    },
    "functionHashes": {
        "getMessage()": "ce6d41de"
    },
    "gasEstimates": {
        "creation": {
            "codeDepositCost": "80600",
            "executionCost": "infinite",
            "totalCost": "infinite"
        },
        "external": {
            "getMessage()": "infinite"
        }
    }
}