{
    "contractName": "supplyChain",
    "abi": [
        {
            "anonymous": false,
            "inputs": [
                {
                    "indexed": false,
                    "internalType": "uint32",
                    "name": "productId",
                    "type": "uint32"
                }
            ],
            "name": "TransferOwnership",
            "type": "event"
        },
        {
            "inputs": [
                {
                    "internalType": "string",
                    "name": "_name",
                    "type": "string"
                },
                {
                    "internalType": "string",
                    "name": "_pass",
                    "type": "string"
                },
                {
                    "internalType": "address",
                    "name": "_pAdd",
                    "type": "address"
                },
                {
                    "internalType": "string",
                    "name": "_pType",
                    "type": "string"
                }
            ],
            "name": "addParticipant",
            "outputs": [
                {
                    "internalType": "uint32",
                    "name": "",
                    "type": "uint32"
                }
            ],
            "stateMutability": "nonpayable",
            "type": "function"
        },
        {
            "inputs": [
                {
                    "internalType": "uint32",
                    "name": "_ownerId",
                    "type": "uint32"
                },
                {
                    "internalType": "string",
                    "name": "_modelNumber",
                    "type": "string"
                },
                {
                    "internalType": "string",
                    "name": "_partNumber",
                    "type": "string"
                },
                {
                    "internalType": "string",
                    "name": "_serialNumber",
                    "type": "string"
                },
                {
                    "internalType": "uint32",
                    "name": "_productCost",
                    "type": "uint32"
                }
            ],
            "name": "addProduct",
            "outputs": [
                {
                    "internalType": "uint32",
                    "name": "",
                    "type": "uint32"
                }
            ],
            "stateMutability": "nonpayable",
            "type": "function"
        },
        {
            "inputs": [
                {
                    "internalType": "uint32",
                    "name": "_uid",
                    "type": "uint32"
                },
                {
                    "internalType": "string",
                    "name": "_uname",
                    "type": "string"
                },
                {
                    "internalType": "string",
                    "name": "_pass",
                    "type": "string"
                },
                {
                    "internalType": "string",
                    "name": "_utype",
                    "type": "string"
                }
            ],
            "name": "authenticateParticipant",
            "outputs": [
                {
                    "internalType": "bool",
                    "name": "",
                    "type": "bool"
                }
            ],
            "stateMutability": "view",
            "type": "function"
        },
        {
            "inputs": [
                {
                    "internalType": "uint32",
                    "name": "_regId",
                    "type": "uint32"
                }
            ],
            "name": "getOwnership",
            "outputs": [
                {
                    "internalType": "uint32",
                    "name": "",
                    "type": "uint32"
                },
                {
                    "internalType": "uint32",
                    "name": "",
                    "type": "uint32"
                },
                {
                    "internalType": "address",
                    "name": "",
                    "type": "address"
                },
                {
                    "internalType": "uint32",
                    "name": "",
                    "type": "uint32"
                }
            ],
            "stateMutability": "view",
            "type": "function"
        },
        {
            "inputs": [
                {
                    "internalType": "uint32",
                    "name": "_participant_id",
                    "type": "uint32"
                }
            ],
            "name": "getParticipant",
            "outputs": [
                {
                    "internalType": "string",
                    "name": "",
                    "type": "string"
                },
                {
                    "internalType": "address",
                    "name": "",
                    "type": "address"
                },
                {
                    "internalType": "string",
                    "name": "",
                    "type": "string"
                }
            ],
            "stateMutability": "view",
            "type": "function"
        },
        {
            "inputs": [
                {
                    "internalType": "uint32",
                    "name": "_productId",
                    "type": "uint32"
                }
            ],
            "name": "getProduct",
            "outputs": [
                {
                    "internalType": "string",
                    "name": "",
                    "type": "string"
                },
                {
                    "internalType": "string",
                    "name": "",
                    "type": "string"
                },
                {
                    "internalType": "string",
                    "name": "",
                    "type": "string"
                },
                {
                    "internalType": "uint32",
                    "name": "",
                    "type": "uint32"
                },
                {
                    "internalType": "address",
                    "name": "",
                    "type": "address"
                },
                {
                    "internalType": "uint32",
                    "name": "",
                    "type": "uint32"
                }
            ],
            "stateMutability": "view",
            "type": "function"
        },
        {
            "inputs": [
                {
                    "internalType": "uint32",
                    "name": "_prodId",
                    "type": "uint32"
                }
            ],
            "name": "getProvenance",
            "outputs": [
                {
                    "internalType": "uint32[]",
                    "name": "",
                    "type": "uint32[]"
                }
            ],
            "stateMutability": "view",
            "type": "function"
        },
        {
            "inputs": [
                {
                    "internalType": "uint32",
                    "name": "_user1Id",
                    "type": "uint32"
                },
                {
                    "internalType": "uint32",
                    "name": "_user2Id",
                    "type": "uint32"
                },
                {
                    "internalType": "uint32",
                    "name": "_prodId",
                    "type": "uint32"
                }
            ],
            "name": "newOwner",
            "outputs": [
                {
                    "internalType": "bool",
                    "name": "",
                    "type": "bool"
                }
            ],
            "stateMutability": "nonpayable",
            "type": "function"
        },
        {
            "inputs": [],
            "name": "owner_id",
            "outputs": [
                {
                    "internalType": "uint32",
                    "name": "",
                    "type": "uint32"
                }
            ],
            "stateMutability": "view",
            "type": "function"
        },
        {
            "inputs": [
                {
                    "internalType": "uint32",
                    "name": "",
                    "type": "uint32"
                }
            ],
            "name": "ownerships",
            "outputs": [
                {
                    "internalType": "uint32",
                    "name": "productId",
                    "type": "uint32"
                },
                {
                    "internalType": "uint32",
                    "name": "ownerId",
                    "type": "uint32"
                },
                {
                    "internalType": "uint32",
                    "name": "trxTimeStamp",
                    "type": "uint32"
                },
                {
                    "internalType": "address",
                    "name": "productOwner",
                    "type": "address"
                }
            ],
            "stateMutability": "view",
            "type": "function"
        },
        {
            "inputs": [],
            "name": "participant_id",
            "outputs": [
                {
                    "internalType": "uint32",
                    "name": "",
                    "type": "uint32"
                }
            ],
            "stateMutability": "view",
            "type": "function"
        },
        {
            "inputs": [
                {
                    "internalType": "uint32",
                    "name": "",
                    "type": "uint32"
                }
            ],
            "name": "participants",
            "outputs": [
                {
                    "internalType": "string",
                    "name": "userName",
                    "type": "string"
                },
                {
                    "internalType": "string",
                    "name": "password",
                    "type": "string"
                },
                {
                    "internalType": "string",
                    "name": "participantType",
                    "type": "string"
                },
                {
                    "internalType": "address",
                    "name": "participantAddress",
                    "type": "address"
                }
            ],
            "stateMutability": "view",
            "type": "function"
        },
        {
            "inputs": [
                {
                    "internalType": "uint32",
                    "name": "",
                    "type": "uint32"
                },
                {
                    "internalType": "uint256",
                    "name": "",
                    "type": "uint256"
                }
            ],
            "name": "productTrack",
            "outputs": [
                {
                    "internalType": "uint32",
                    "name": "",
                    "type": "uint32"
                }
            ],
            "stateMutability": "view",
            "type": "function"
        },
        {
            "inputs": [],
            "name": "product_id",
            "outputs": [
                {
                    "internalType": "uint32",
                    "name": "",
                    "type": "uint32"
                }
            ],
            "stateMutability": "view",
            "type": "function"
        },
        {
            "inputs": [
                {
                    "internalType": "uint32",
                    "name": "",
                    "type": "uint32"
                }
            ],
            "name": "products",
            "outputs": [
                {
                    "internalType": "string",
                    "name": "modelNumber",
                    "type": "string"
                },
                {
                    "internalType": "string",
                    "name": "partNumber",
                    "type": "string"
                },
                {
                    "internalType": "string",
                    "name": "serialNumber",
                    "type": "string"
                },
                {
                    "internalType": "address",
                    "name": "productOwner",
                    "type": "address"
                },
                {
                    "internalType": "uint32",
                    "name": "cost",
                    "type": "uint32"
                },
                {
                    "internalType": "uint32",
                    "name": "mfgTimeStamp",
                    "type": "uint32"
                }
            ],
            "stateMutability": "view",
            "type": "function"
        }
    ],
    "bytecode": "6080604052600080546001600160601b031916905534801561002057600080fd5b5061236d806100306000396000f3fe608060405234801561001057600080fd5b50600436106100f55760003560e01c80638f5ebf7111610097578063df6d23f111610066578063df6d23f1146102b9578063eab0a4791461036a578063ebf43a7e1461037a578063fc2da9101461038d57600080fd5b80638f5ebf7114610238578063a638ac491461024f578063bf712fd614610274578063c85695651461029957600080fd5b806350632104116100d3578063506321041461016c578063721b57431461017f5780637d0a9ac91461019257806381e15610146101b557600080fd5b80631a074802146100fa5780632e9d5284146101275780633b26a65d1461014a575b600080fd5b61010d610108366004611c08565b6103a5565b60405163ffffffff90911681526020015b60405180910390f35b61013a610135366004611c32565b6103ee565b604051901515815260200161011e565b61015d610158366004611c75565b611027565b60405161011e93929190611ce7565b61010d61017a366004611dc8565b61117e565b61013a61018d366004611e72565b61138d565b6101a56101a0366004611c75565b6114d9565b60405161011e9493929190611f0b565b6102026101c3366004611c75565b60036020526000908152604090205463ffffffff808216916401000000008104821691600160401b82041690600160601b90046001600160a01b031684565b6040805163ffffffff9586168152938516602085015291909316908201526001600160a01b03909116606082015260800161011e565b60005461010d90600160401b900463ffffffff1681565b61026261025d366004611c75565b6116a2565b60405161011e96959493929190611f5e565b610287610282366004611c75565b6118b0565b60405161011e96959493929190611fc9565b6102ac6102a7366004611c75565b611a92565b60405161011e9190612031565b6103316102c7366004611c75565b63ffffffff8082166000908152600360209081526040918290208251608081018452905480851680835264010000000082048616938301849052600160401b82049095169382018490526001600160a01b03600160601b9091041660609091018190529093509193565b6040805163ffffffff958616815293851660208501526001600160a01b039092169183019190915291909116606082015260800161011e565b60005461010d9063ffffffff1681565b61010d61038836600461207b565b611b27565b60005461010d90640100000000900463ffffffff1681565b600460205281600052604060002081815481106103c157600080fd5b9060005260206000209060089182820401919006600402915091509054906101000a900463ffffffff1681565b63ffffffff811660009081526001602052604081206003015482906001600160a01b0316331461043e5760405162461bcd60e51b8152602060048201526000602482015260440160405180910390fd5b63ffffffff851660009081526002602052604080822081516080810190925280548290829061046c9061210b565b80601f01602080910402602001604051908101604052809291908181526020018280546104989061210b565b80156104e55780601f106104ba576101008083540402835291602001916104e5565b820191906000526020600020905b8154815290600101906020018083116104c857829003601f168201915b505050505081526020016001820180546104fe9061210b565b80601f016020809104026020016040519081016040528092919081815260200182805461052a9061210b565b80156105775780601f1061054c57610100808354040283529160200191610577565b820191906000526020600020905b81548152906001019060200180831161055a57829003601f168201915b505050505081526020016002820180546105909061210b565b80601f01602080910402602001604051908101604052809291908181526020018280546105bc9061210b565b80156106095780601f106105de57610100808354040283529160200191610609565b820191906000526020600020905b8154815290600101906020018083116105ec57829003601f168201915b5050509183525050600391909101546001600160a01b031660209182015263ffffffff8716600090815260029091526040808220815160808101909252805493945091929091908290829061065d9061210b565b80601f01602080910402602001604051908101604052809291908181526020018280546106899061210b565b80156106d65780601f106106ab576101008083540402835291602001916106d6565b820191906000526020600020905b8154815290600101906020018083116106b957829003601f168201915b505050505081526020016001820180546106ef9061210b565b80601f016020809104026020016040519081016040528092919081815260200182805461071b9061210b565b80156107685780601f1061073d57610100808354040283529160200191610768565b820191906000526020600020905b81548152906001019060200180831161074b57829003601f168201915b505050505081526020016002820180546107819061210b565b80601f01602080910402602001604051908101604052809291908181526020018280546107ad9061210b565b80156107fa5780601f106107cf576101008083540402835291602001916107fa565b820191906000526020600020905b8154815290600101906020018083116107dd57829003601f168201915b5050509183525050600391909101546001600160a01b03166020909101526000805491925090600160401b900463ffffffff1681600861083983612145565b91906101000a81548163ffffffff021916908363ffffffff16021790555090507fcec9b8e63c868f2f7f30368f1583e7aa39ae80e163d57a859fa5a90244b28ac1836040015160405160200161088f9190612176565b604051602081830303815290604052805190602001201480156108e9575060008051602061231883398151915282604001516040516020016108d19190612176565b60405160208183030381529060405280519060200120145b15610b015785600360008363ffffffff1663ffffffff16815260200190815260200160002060000160006101000a81548163ffffffff021916908363ffffffff1602179055508160600151600360008363ffffffff1663ffffffff168152602001908152602001600020600001600c6101000a8154816001600160a01b0302191690836001600160a01b0316021790555086600360008363ffffffff1663ffffffff16815260200190815260200160002060000160046101000a81548163ffffffff021916908363ffffffff16021790555042600360008363ffffffff1663ffffffff16815260200190815260200160002060000160086101000a81548163ffffffff021916908363ffffffff1602179055508160600151600160008863ffffffff1663ffffffff16815260200190815260200160002060030160006101000a8154816001600160a01b0302191690836001600160a01b03160217905550600460008763ffffffff1663ffffffff1681526020019081526020016000208190806001815401808255809150506001900390600052602060002090600891828204019190066004029091909190916101000a81548163ffffffff021916908363ffffffff1602179055507fa5470ac012c6e9dc500e62b1d3de0de58db49b3ab7cfebbfb126d9abd854199b86604051610aed919063ffffffff91909116815260200190565b60405180910390a16001945050505061101f565b6000805160206123188339815191528360400151604051602001610b259190612176565b60405160208183030381529060405280519060200120148015610b7f57506000805160206123188339815191528260400151604051602001610b679190612176565b60405160208183030381529060405280519060200120145b15610d835785600360008363ffffffff1663ffffffff16815260200190815260200160002060000160006101000a81548163ffffffff021916908363ffffffff1602179055508160600151600360008363ffffffff1663ffffffff168152602001908152602001600020600001600c6101000a8154816001600160a01b0302191690836001600160a01b0316021790555086600360008363ffffffff1663ffffffff16815260200190815260200160002060000160046101000a81548163ffffffff021916908363ffffffff16021790555042600360008363ffffffff1663ffffffff16815260200190815260200160002060000160086101000a81548163ffffffff021916908363ffffffff1602179055508160600151600160008863ffffffff1663ffffffff16815260200190815260200160002060030160006101000a8154816001600160a01b0302191690836001600160a01b03160217905550600460008763ffffffff1663ffffffff1681526020019081526020016000208190806001815401808255809150506001900390600052602060002090600891828204019190066004029091909190916101000a81548163ffffffff021916908363ffffffff1602179055507fa5470ac012c6e9dc500e62b1d3de0de58db49b3ab7cfebbfb126d9abd854199b86604051610aed919063ffffffff91909116815260200190565b6000805160206123188339815191528360400151604051602001610da79190612176565b60405160208183030381529060405280519060200120148015610e1357507fc0878b4b16a78e8085cba0ca02fc0924f1492924058d153153a3f286e0fd70ff8260400151604051602001610dfb9190612176565b60405160208183030381529060405280519060200120145b156110175785600360008363ffffffff1663ffffffff16815260200190815260200160002060000160006101000a81548163ffffffff021916908363ffffffff1602179055508160600151600360008363ffffffff1663ffffffff168152602001908152602001600020600001600c6101000a8154816001600160a01b0302191690836001600160a01b0316021790555086600360008363ffffffff1663ffffffff16815260200190815260200160002060000160046101000a81548163ffffffff021916908363ffffffff16021790555042600360008363ffffffff1663ffffffff16815260200190815260200160002060000160086101000a81548163ffffffff021916908363ffffffff1602179055508160600151600160008863ffffffff1663ffffffff16815260200190815260200160002060030160006101000a8154816001600160a01b0302191690836001600160a01b03160217905550600460008763ffffffff1663ffffffff1681526020019081526020016000208190806001815401808255809150506001900390600052602060002090600891828204019190066004029091909190916101000a81548163ffffffff021916908363ffffffff1602179055507fa5470ac012c6e9dc500e62b1d3de0de58db49b3ab7cfebbfb126d9abd854199b86604051610aed919063ffffffff91909116815260200190565b600094505050505b509392505050565b63ffffffff81166000908152600260208190526040822060038101548154606094938593926001600160a01b0316919083019083906110659061210b565b80601f01602080910402602001604051908101604052809291908181526020018280546110919061210b565b80156110de5780601f106110b3576101008083540402835291602001916110de565b820191906000526020600020905b8154815290600101906020018083116110c157829003601f168201915b505050505092508080546110f19061210b565b80601f016020809104026020016040519081016040528092919081815260200182805461111d9061210b565b801561116a5780601f1061113f5761010080835404028352916020019161116a565b820191906000526020600020905b81548152906001019060200180831161114d57829003601f168201915b505050505090509250925092509193909250565b63ffffffff8516600090815260026020818152604080842090517fcec9b8e63c868f2f7f30368f1583e7aa39ae80e163d57a859fa5a90244b28ac1936111c79392019101612192565b6040516020818303038152906040528051906020012003611380576000805463ffffffff1681806111f783612145565b82546101009290920a63ffffffff818102199093169183160217909155811660009081526001602052604090209091506112318782612257565b5063ffffffff81166000908152600160208190526040909120016112558682612257565b5063ffffffff811660009081526001602052604090206002016112788582612257565b5082600160008363ffffffff1663ffffffff16815260200190815260200160002060030160146101000a81548163ffffffff021916908363ffffffff160217905550600260008863ffffffff1663ffffffff16815260200190815260200160002060030160009054906101000a90046001600160a01b0316600160008363ffffffff1663ffffffff16815260200190815260200160002060030160006101000a8154816001600160a01b0302191690836001600160a01b0316021790555042600160008363ffffffff1663ffffffff16815260200190815260200160002060030160186101000a81548163ffffffff021916908363ffffffff16021790555080915050611384565b5060005b95945050505050565b6000816040516020016113a09190612176565b60408051601f19818403018152828252805160209182012063ffffffff89166000908152600280845293902090936113dd93919091019101612192565b60405160208183030381529060405280519060200120036114cd57836040516020016114099190612176565b60408051601f19818403018152828252805160209182012063ffffffff8916600090815260028352929092209192611442929101612192565b60405160208183030381529060405280519060200120036114cd578260405160200161146e9190612176565b60408051601f19818403018152828252805160209182012063ffffffff89166000908152600283529290922091926114aa926001019101612192565b60405160208183030381529060405280519060200120036114cd575060016114d1565b5060005b949350505050565b6002602052600090815260409020805481906114f49061210b565b80601f01602080910402602001604051908101604052809291908181526020018280546115209061210b565b801561156d5780601f106115425761010080835404028352916020019161156d565b820191906000526020600020905b81548152906001019060200180831161155057829003601f168201915b5050505050908060010180546115829061210b565b80601f01602080910402602001604051908101604052809291908181526020018280546115ae9061210b565b80156115fb5780601f106115d0576101008083540402835291602001916115fb565b820191906000526020600020905b8154815290600101906020018083116115de57829003601f168201915b5050505050908060020180546116109061210b565b80601f016020809104026020016040519081016040528092919081815260200182805461163c9061210b565b80156116895780601f1061165e57610100808354040283529160200191611689565b820191906000526020600020905b81548152906001019060200180831161166c57829003601f168201915b505050600390930154919250506001600160a01b031684565b63ffffffff8082166000908152600160208190526040822060038101548154606095869586959094859485949193928401926002850192600160a01b83048216926001600160a01b03811692600160c01b909104169086906117039061210b565b80601f016020809104026020016040519081016040528092919081815260200182805461172f9061210b565b801561177c5780601f106117515761010080835404028352916020019161177c565b820191906000526020600020905b81548152906001019060200180831161175f57829003601f168201915b5050505050955084805461178f9061210b565b80601f01602080910402602001604051908101604052809291908181526020018280546117bb9061210b565b80156118085780601f106117dd57610100808354040283529160200191611808565b820191906000526020600020905b8154815290600101906020018083116117eb57829003601f168201915b5050505050945083805461181b9061210b565b80601f01602080910402602001604051908101604052809291908181526020018280546118479061210b565b80156118945780601f1061186957610100808354040283529160200191611894565b820191906000526020600020905b81548152906001019060200180831161187757829003601f168201915b5050505050935095509550955095509550955091939550919395565b6001602052600090815260409020805481906118cb9061210b565b80601f01602080910402602001604051908101604052809291908181526020018280546118f79061210b565b80156119445780601f1061191957610100808354040283529160200191611944565b820191906000526020600020905b81548152906001019060200180831161192757829003601f168201915b5050505050908060010180546119599061210b565b80601f01602080910402602001604051908101604052809291908181526020018280546119859061210b565b80156119d25780601f106119a7576101008083540402835291602001916119d2565b820191906000526020600020905b8154815290600101906020018083116119b557829003601f168201915b5050505050908060020180546119e79061210b565b80601f0160208091040260200160405190810160405280929190818152602001828054611a139061210b565b8015611a605780601f10611a3557610100808354040283529160200191611a60565b820191906000526020600020905b815481529060010190602001808311611a4357829003601f168201915b505050600390930154919250506001600160a01b0381169063ffffffff600160a01b8204811691600160c01b90041686565b63ffffffff8116600090815260046020908152604091829020805483518184028101840190945280845260609392830182828015611b1b57602002820191906000526020600020906000905b82829054906101000a900463ffffffff1663ffffffff1681526020019060040190602082600301049283019260010382029150808411611ade5790505b50505050509050919050565b600080548190640100000000900463ffffffff16816004611b4783612145565b82546101009290920a63ffffffff81810219909316918316021790915581166000908152600260205260409020909150611b818782612257565b5063ffffffff81166000908152600260205260409020600101611ba48682612257565b5063ffffffff811660009081526002602081905260409091206003810180546001600160a01b0319166001600160a01b03881617905501611be58482612257565b5095945050505050565b803563ffffffff81168114611c0357600080fd5b919050565b60008060408385031215611c1b57600080fd5b611c2483611bef565b946020939093013593505050565b600080600060608486031215611c4757600080fd5b611c5084611bef565b9250611c5e60208501611bef565b9150611c6c60408501611bef565b90509250925092565b600060208284031215611c8757600080fd5b611c9082611bef565b9392505050565b60005b83811015611cb2578181015183820152602001611c9a565b50506000910152565b60008151808452611cd3816020860160208601611c97565b601f01601f19169290920160200192915050565b606081526000611cfa6060830186611cbb565b6001600160a01b03851660208401528281036040840152611d1b8185611cbb565b9695505050505050565b634e487b7160e01b600052604160045260246000fd5b600082601f830112611d4c57600080fd5b813567ffffffffffffffff80821115611d6757611d67611d25565b604051601f8301601f19908116603f01168101908282118183101715611d8f57611d8f611d25565b81604052838152866020858801011115611da857600080fd5b836020870160208301376000602085830101528094505050505092915050565b600080600080600060a08688031215611de057600080fd5b611de986611bef565b9450602086013567ffffffffffffffff80821115611e0657600080fd5b611e1289838a01611d3b565b95506040880135915080821115611e2857600080fd5b611e3489838a01611d3b565b94506060880135915080821115611e4a57600080fd5b50611e5788828901611d3b565b925050611e6660808701611bef565b90509295509295909350565b60008060008060808587031215611e8857600080fd5b611e9185611bef565b9350602085013567ffffffffffffffff80821115611eae57600080fd5b611eba88838901611d3b565b94506040870135915080821115611ed057600080fd5b611edc88838901611d3b565b93506060870135915080821115611ef257600080fd5b50611eff87828801611d3b565b91505092959194509250565b608081526000611f1e6080830187611cbb565b8281036020840152611f308187611cbb565b90508281036040840152611f448186611cbb565b91505060018060a01b038316606083015295945050505050565b60c081526000611f7160c0830189611cbb565b8281036020840152611f838189611cbb565b90508281036040840152611f978188611cbb565b63ffffffff96871660608501526001600160a01b039590951660808401525050921660a0909201919091529392505050565b60c081526000611fdc60c0830189611cbb565b8281036020840152611fee8189611cbb565b905082810360408401526120028188611cbb565b6001600160a01b03969096166060840152505063ffffffff9283166080820152911660a0909101529392505050565b6020808252825182820181905260009190848201906040850190845b8181101561206f57835163ffffffff168352928401929184019160010161204d565b50909695505050505050565b6000806000806080858703121561209157600080fd5b843567ffffffffffffffff808211156120a957600080fd5b6120b588838901611d3b565b955060208701359150808211156120cb57600080fd5b6120d788838901611d3b565b9450604087013591506001600160a01b03821682146120f557600080fd5b90925060608601359080821115611ef257600080fd5b600181811c9082168061211f57607f821691505b60208210810361213f57634e487b7160e01b600052602260045260246000fd5b50919050565b600063ffffffff80831681810361216c57634e487b7160e01b600052601160045260246000fd5b6001019392505050565b60008251612188818460208701611c97565b9190910192915050565b60008083546121a08161210b565b600182811680156121b857600181146121cd576121fc565b60ff19841687528215158302870194506121fc565b8760005260208060002060005b858110156121f35781548a8201529084019082016121da565b50505082870194505b50929695505050505050565b601f82111561225257600081815260208120601f850160051c8101602086101561222f5750805b601f850160051c820191505b8181101561224e5782815560010161223b565b5050505b505050565b815167ffffffffffffffff81111561227157612271611d25565b6122858161227f845461210b565b84612208565b602080601f8311600181146122ba57600084156122a25750858301515b600019600386901b1c1916600185901b17855561224e565b600085815260208120601f198616915b828110156122e9578886015182559484019460019091019084016122ca565b50858210156123075787850151600019600388901b60f8161c191681555b5050505050600190811b0190555056feb77c7d6bf62fa24fc205955093030c58325cd2d3d35fb486ede7594fb99635f5a2646970667358221220d8f455bc7cf0a45ff8d92f63b96389122eccd58344407d97b273a5dcd3696acb64736f6c63430008130033",
    "sourcePath": "d:/learn_project/web3/first_day/contracts/SupplyChain.sol",
    "compiler": {
        "name": "solc",
        "version": "0.8.19+commit.7dd6d404"
    },
    "functionHashes": {
        "addParticipant(string,string,address,string)": "ebf43a7e",
        "addProduct(uint32,string,string,string,uint32)": "50632104",
        "authenticateParticipant(uint32,string,string,string)": "721b5743",
        "getOwnership(uint32)": "df6d23f1",
        "getParticipant(uint32)": "3b26a65d",
        "getProduct(uint32)": "a638ac49",
        "getProvenance(uint32)": "c8569565",
        "newOwner(uint32,uint32,uint32)": "2e9d5284",
        "owner_id()": "8f5ebf71",
        "ownerships(uint32)": "81e15610",
        "participant_id()": "fc2da910",
        "participants(uint32)": "7d0a9ac9",
        "productTrack(uint32,uint256)": "1a074802",
        "product_id()": "eab0a479",
        "products(uint32)": "bf712fd6"
    },
    "gasEstimates": {
        "creation": {
            "codeDepositCost": "1813800",
            "executionCost": "26142",
            "totalCost": "1839942"
        },
        "external": {
            "addParticipant(string,string,address,string)": "infinite",
            "addProduct(uint32,string,string,string,uint32)": "infinite",
            "authenticateParticipant(uint32,string,string,string)": "infinite",
            "getOwnership(uint32)": "2867",
            "getParticipant(uint32)": "infinite",
            "getProduct(uint32)": "infinite",
            "getProvenance(uint32)": "infinite",
            "newOwner(uint32,uint32,uint32)": "infinite",
            "owner_id()": "2342",
            "ownerships(uint32)": "2791",
            "participant_id()": "2401",
            "participants(uint32)": "infinite",
            "productTrack(uint32,uint256)": "6421",
            "product_id()": "2346",
            "products(uint32)": "infinite"
        }
    }
}