{
  "contractName": "basicMath",
  "abi": [
    {
      "inputs": [],
      "name": "MAX_UINT256",
      "outputs": [
        {
          "internalType": "uint256",
          "name": "",
          "type": "uint256"
        }
      ],
      "stateMutability": "view",
      "type": "function",
      "constant": true
    },
    {
      "inputs": [
        {
          "internalType": "uint256",
          "name": "_numA",
          "type": "uint256"
        },
        {
          "internalType": "uint256",
          "name": "_numB",
          "type": "uint256"
        }
      ],
      "name": "add",
      "outputs": [
        {
          "internalType": "uint256",
          "name": "",
          "type": "uint256"
        }
      ],
      "stateMutability": "pure",
      "type": "function",
      "constant": true
    }
  ],
  "bytecode": "0x608060405234801561001057600080fd5b50610206806100206000396000f3fe608060405234801561001057600080fd5b50600436106100365760003560e01c806333a581d21461003b578063771602f714610059575b600080fd5b610043610089565b60405161005091906100e1565b60405180910390f35b610073600480360381019061006e919061012d565b6100ad565b60405161008091906100e1565b60405180910390f35b7fffffffffffffffffffffffffffffffffffffffffffffffffffffffffffffffff81565b60008082846100bc919061019c565b90508091505092915050565b6000819050919050565b6100db816100c8565b82525050565b60006020820190506100f660008301846100d2565b92915050565b600080fd5b61010a816100c8565b811461011557600080fd5b50565b60008135905061012781610101565b92915050565b60008060408385031215610144576101436100fc565b5b600061015285828601610118565b925050602061016385828601610118565b9150509250929050565b7f4e487b7100000000000000000000000000000000000000000000000000000000600052601160045260246000fd5b60006101a7826100c8565b91506101b2836100c8565b92508282019050808211156101ca576101c961016d565b5b9291505056fea264697066735822122025234acf0c9cdd666945ba6fb975c527ba6e3880559b730a8dde47f5334d2ce364736f6c63430008130033",
  "immutableReferences": {},
  "source": "// SPDX-License-Identifier: MIT\r\npragma solidity 0.8.19;\r\n\r\ncontract basicMath {\r\n   uint256 constant public MAX_UINT256 = 2**256 - 1;\r\n\r\n   function add(uint256 _numA, uint256 _numB) public pure returns (uint256) {\r\n      uint256 c = _numA + _numB;\r\n    //   require(c >= _numA, \"Overflow\");\r\n      return c;\r\n   }\r\n}",
  "sourcePath": "D:\\learn_project\\web3\\first_day\\contracts\\basicMath.sol",
  "compiler": {
    "name": "solc",
    "version": "0.8.19+commit.7dd6d404.Emscripten.clang"
  },
  "schemaVersion": "3.4.16",
  "updatedAt": "2024-05-28T17:16:51.569Z",
  "networkType": "ethereum",
  "devdoc": {
    "kind": "dev",
    "methods": {},
    "version": 1
  },
  "userdoc": {
    "kind": "user",
    "methods": {},
    "version": 1
  }
}